:020000040000FA
:020000002729AE
:08000800A208031D08280800EE
:10001000F9300000000000000000000000000000B7
:1000200000000000000000000000FF3E031D092842
:1000300000000000000000000000000000000000C0
:1000400000000000000000000000A20B08280800CB
:100050007A3021009900CB308C00C0308E00230014
:100060008C018E012000A001A101A201A20AA0081A
:10007000031D2210A108031D2210A301A2080319C9
:10008000A30AA401A3080319A40A241C49282200D6
:100090000E14200024184E2822000E102000A20169
:1000A00001302002031921080319A20AA301A208A2
:1000B0000319A30AA401A3080319A40A241C622893
:1000C00022000E1520002418672822000E1120009F
:1000D000A20102302002031921080319A20AA30178
:1000E000A2080319A30AA401A3080319A40A241C43
:1000F0007B2822008E1520002418802822008E11D3
:100100002000A20103302002031921080319A20ACA
:10011000A301A2080319A30AA401A3080319A40AAE
:10012000241C942822000E1620002418992822004E
:100130000E122000A2010430200203192108031925
:10014000A20AA301A2080319A30AA401A308031980
:10015000A40A241CAD2822000C1520002418B22863
:1001600022000C112000A2010530200203192108F1
:100170000319A20AA301A2080319A30AA401A30850
:100180000319A40A241CC62822008E142000241857
:10019000CB2822008E102000A20106302002031975
:1001A00021080319A20AA301A2080319A30AA401A2
:1001B000A3080319A40A241CDF2822008E1620009D
:1001C0002418E42822008E122000A2010730200209
:1001D000031921080319A20AA301A2080319A30AFB
:1001E000A401A3080319A40A241CF82822008C16D1
:1001F00020002418FD2822008C122000A2010830C3
:100200002002031921080319A20AA301A208031955
:10021000A30AA401A3080319A40A241C112922007B
:100220000C1620002418162922000C122000A00A07
:100230000319A10A2008083C21080318031DA11B6B
:100240002329A001A101C830A20004203528803153
:0202500028285C
:020000040001F9
:02000E00A4FF4D
:02001000FFDE11
:00000001FF
