:020000040000FA
:0400000088318A2F8A
:0400080090313328D8
:02000E00520896
:10001000D3000030D4001330D3070318D40A540897
:100020008A00530882000034003400340034003465
:100030000034003400340034003400340034003420
:100040000034003400340034003400340034003410
:1000500000340034003400340034003400340134FF
:1000600001340134013401340134013401340134E8
:1000700001340134013401340234023402340234D4
:1000800002340234023402340334033403340334BC
:1000900003340334033404340434043404340434A3
:1000A0000534053405340534063406340634063484
:1000B0000734073407340734083408340834093463
:1000C000093409340A340A340A340B340B340B343F
:1000D0000C340C340D340D340D340E340E340F3416
:1000E0000F341034103411341134123412341334E8
:1000F00013341434143415341534163416341734B8
:1001000018341834193419341A341B341B341C3481
:100110001D341D341E341F34203420342134223445
:100120002334233424342534263427342734283404
:1001300029342A342B342C342D342E342F343034BB
:10014000313432343234333434343634373438346E
:1001500039343A343B343C343D343E343F3440341B
:1001600042344334443445344634483449344A34C0
:100170004B344D344E344F3451345234533455345F
:100180005634573459345A345C345D345F346034F7
:100190006234633465346634683469346B346D3486
:1001A0006E347034723473347534773478347A340E
:1001B0007C347E347F34813483348534873489348D
:1001C0008A348C348E349034923494349634983407
:1001D0009A349C349E34A034A234A434A734A93475
:1001E000AB34AD34AF34B134B434B634B834BA34DB
:1001F000BD34BF34C134C434C634C834CB34CD3438
:10020000D034D234D534D734DA34DC34DF34E1348A
:10021000E434E734E934EC34EF34F134F434F734D3
:10022000F934FC34FF34B508031D17290800F930F0
:1002300000000000000000000000000000000000BE
:100240000000000000000000FF3E031D1829000010
:10025000000000000000000000000000000000009E
:100260000000000000000000B50B17290800D008AE
:10027000031940292908D1004F08D2000720CF00D8
:1002800000308500783084004E0884074F0800064F
:100290000319080000308500783084004E08840778
:1002A0004F0880004E08003A803103196D29013A49
:1002B00003197329033A03197929013A03197F298C
:1002C000073A03198529013A03198929033A0319C1
:1002D0008D29013A0319912908004F0A031D0800CE
:1002E00022000E1408004F0A031D080022000E15FC
:1002F00008004F0A031D080022008E1508004F0A4F
:10030000031D080022000E1608004F082600910069
:1003100008004F082600980008004F0825009100AB
:1003200008004F082500980008004D1DA1294B0822
:10033000CE004C08FF3CCF0002304D05D0003721E5
:1003400008004B08CE004C08CF0002304D05D0000D
:1003500037210800CB01CC01CB1908003E1CB22983
:100360003D08CC07BE0C0310BD0DCB0AAC290030F4
:10037000C2002030C1003C08BD000B30BE00AA21E5
:100380004C084107BF004208C0000318C00A0030F3
:100390008500E03084003C08C5000310450D84074B
:1003A0000008C300840A0008C400400885003F0814
:1003B0008400033084070003031D080044088500FF
:1003C00043088400063084070008C6004608033A44
:1003D0000319F129063A0319112A033A03190800EF
:1003E000422A400885003F08840005308407000841
:1003F000C900840A0008C8003F0884000930840747
:10040000840A480880008403490880003F0884006B
:1004100003308407023080003F08840000308000F1
:100420000800400885003F08840005308407000864
:10043000C900840A0008C8003F0884000930840706
:10044000840A480880008403490880003F0884002B
:10045000053084070008C900840A0008C8003F0866
:10046000840007308407840A480880008403490810
:1004700080003F0884000030800003308407033090
:1004800080000800400885003F088400003080009C
:1004900003308407003080003C08CB00CC014408C6
:1004A0008500430884000D3084070008CD009521A5
:1004B00008000030C6002030C5004208BD000B30E7
:1004C000BE00AA214C084507C3004608C400031813
:1004D000C40A00308500E03084004208C9000310DF
:1004E000490D84070008C700840A0008C8004808AE
:1004F000850047088400063084070008CA004A08BF
:10050000063A0319962A063A0319B62A033A03193A
:10051000B62A063A0319B62A013A0319BF2A053A40
:100520000319EE2A033A0319EE2AEE2A440885003D
:100530004308840080080319B62A4408850043084C
:1005400084000330840700308000430884000030BA
:1005500080004208CB00CC01480885004708840091
:100560000D3084070008CD0095210800440885005F
:10057000430884000330840701308000092B4408BD
:10058000850043088400053084070008CD00840AF4
:100590000008CC004308840009308407840A4C0812
:1005A000800084034D0880004308840005308407E0
:1005B0000008CD00840A0008CC00430884000730FE
:1005C0008407840A4C08800084034D088000430897
:1005D00084000330840703308000092B4408850021
:1005E00043088400053084070008CD00840A000811
:1005F000CC004308840009308407840A4C0880003A
:1006000084034D08800043088400033084070230CF
:1006100080004408850043088400013080004208BF
:10062000CB00043084070008CC0048088500470848
:1006300084000D3084070008CD00952108002300B8
:1006400095181F2B24004008230091002400410826
:100650002300930095131515240042108B1B4214A0
:100660008B13553023009600AA309600951415116F
:10067000240042188B17421C8B1308000130B7006E
:10068000B801B9010830380239080318492B031999
:100690004B2BB91F080000308500E030840038087B
:1006A000BA0003103A0D8407840A0008BB008403D3
:1006B000000884003B0885000008033A031D6C2BEA
:1006C000370836050319692B3808C20059228031D2
:1006D0006C2B3808BC00B7212400B735B80A0319C1
:1006E000B90A8031422B0130C1002030C0003C08E3
:1006F000C2000310420DC0070318C10A3D08013AA9
:100700000319862B033A03199D2B0800BE08031911
:10071000902B41088500400884003F088000962BFC
:100720004108850040088400FF30800041088500B2
:10073000400A8400003080000800BF080319B22B73
:100740003E03C4000130C3004408FF390319AB2B3A
:10075000C335FF3EA52B41088500400A84004308AD
:100760008004080041088500400A84003E03C5005B
:100770000130C300C4014508FF390319C32BC33539
:10078000C40DFF3EBC2B43098005080000308500E6
:10079000E03084003C08C2000310420D84070008CA
:1007A000C000840A0008C1003D08003A0319092C62
:1007B000033A0319092C073A0319092C053A0319BE
:1007C000102C033A0319102C073A03192D2C0F3A59
:1007D00003194A2C013A0319592C073A0319682CBA
:1007E0003E3A0319712C013A0319842C073A031974
:1007F0008D2C723A0319AF2C013A0319B82C0F3A19
:100800000319C12C013A0319D22C753A0319DB2CB8
:10081000080041088500400884003D088000080069
:1008200041088500400884003D08800002308407AC
:100830003F08800040088400033084073F088000A0
:1008400040088400043084070130800040088400A0
:10085000053084077F30800008004108850040088B
:10086000840001308000023084073F088000400887
:100870008400033084073E08800040088400043070
:1008800084070130800040088400053084077F30F1
:1008900080000800BF080319502C3F03C300522CEE
:1008A000FF30C30041088500400A840043088000EF
:1008B00008004108850040088400043084073F0890
:1008C000800040088400053084073F08800008004D
:1008D0004108850040088400053084073F088000F7
:1008E0000800BF0803197C2C4108850040088400DB
:1008F0000D3084070010080041088500400884007E
:100900000D30840700140800410885004008840069
:10091000063084073F08800008003E08C400C30179
:10092000C40DC30DC40DC30DC40DC30DC40DC30D43
:10093000C40DC30DC40DC30DC40DC30D8030C4055B
:100940003F08C4044108850040088400073084073C
:10095000840A43088000840344088000080041089A
:10096000850040088400093084073F0880000800A3
:1009700041088500400884000A3084073F08800051
:100980000800BF080319C72C3F03C300C92CFF3060
:10099000C30041088500400884000B3084074308E9
:1009A0008000080041088500400884000C3084075E
:1009B0003F088000080041088500400884000D3091
:1009C000840701308005400884000D3084073F080B
:1009D000800408003C080A3A0319072D1E3A03193F
:1009E0000B2D273A03190F2D073A0319132D723ACD
:1009F00003192C2D013A0319302D0F3A0319342D08
:100A0000013A03193F2D753A0319432D08003E039F
:100A10002300E60008003E032300E70008003E082C
:100A20002300E80008003D082300E900EA01E90D81
:100A3000EA0DE90DEA0DE90DEA0DE90DEA0DE90D02
:100A4000EA0DE90DEA0DE90DEA0D8030E905240013
:100A50003E082300E90408003E082300EB000800DC
:100A60003E082300EC000800BE0803193B2D3E039E
:100A70002300ED000800FF302300ED0008003E08D1
:100A80002300EE00080001302300EF0524003E089B
:100A90002300EF0408003C08003C3D080318031D38
:100AA000BD1B08003F0885003E0884000008C00008
:100AB0003B0885003A0884000008C1001F233F0856
:100AC00085003E0884000008C000840AC00A03199B
:100AD000800A840340088000BA0A0319BB0ABC08D4
:100AE0000319BD03BC034B2D080023009518752D79
:100AF00024003B08230091009513151413082400CB
:100B0000BC0008000130BB00E630BA000A30BC006F
:100B1000BD013808BE003908BF004B250130BB00BD
:100B20004030BA000E30BC00BD013808BE003908A4
:100B3000BF004B250130BB004E30BA000E30BC0068
:100B4000BD013808BE003908BF004B250130BB008D
:100B50005C30BA000E30BC00BD013808BE00390858
:100B6000BF004B250130BB00A030BA000E30BC00E6
:100B7000BD013808BE003908BF004B250130BB005D
:100B8000AE30BA000E30BC00BD013808BE003908D6
:100B9000BF004B250130BB00BC30BA000E30BC009A
:100BA000BD013808BE003908BF004B250130BB002D
:100BB000CA30BA000E30BC00BD013808BE0039088A
:100BC000BF004B250130BB00D830BA000E30BC004E
:100BD000BD013808BE003908BF004B250130BB00FD
:100BE0002030BA002030BC00BD013808BE003908F2
:100BF000BF004B2508002400B401B50108303402C1
:100C000035080318052E0319072EB51FC22E003014
:100C1000BB002030BA003408BD000B30BE00AA2152
:100C20004C083A07B6003B08B7000318B70A003073
:100C30008500E03084003408C1000310410D8407B2
:100C40000008BF00840A0008C000400885003F0873
:100C500084000D308407001C702E400885003F087A
:100C600084000630840723006808800024003F08C1
:100C7000840007308407840A230069082400C20026
:100C800023006A08800084032400420880003F0893
:100C900084000930840723006B08800024003F088B
:100CA00084000A30840723006C08800024003F0879
:100CB00084000B30840723006D08800024003F0867
:100CC00084000C30840723006E08800001306F041C
:100CD0002400C2003F0884000D30840742088000D1
:100CE00037088500360A8400FF3080008403023014
:100CF0008407003080003608840000308000033014
:100D0000840700308000400885003F0884000730D9
:100D100084070008C400840A0008C300370885005F
:100D20003608840005308407840A43088000840361
:100D3000440880003608840004308407FF308000B7
:100D40003408C2007425400885003F08840000086C
:100D5000043A031DB02E3408C20059228031BC2E43
:100D60003408CB00CC01400885003F0884000D30DA
:100D700084070008CD0095212400B40A0319B50AA0
:100D80008031FE2D220021082400B6003E230800F9
:100D90003808643A031DD42E3908BC003A08BD0057
:100DA0003B08BE00EA24080001303802031CE62E8E
:100DB0003808083C031CE62E3803BC003908BD0087
:100DC0003A08BE003B08BF00C62308000A303802BC
:100DD000031C08003808193C031C08000A303802BC
:100DE000BC003908BD003A08BE003B08BF007323B1
:100DF00008003608003C37080318031DB71B08001D
:100E000039088500380884000008BB0075253C08B7
:100E1000BA0035088500340884003A088000390893
:100E20008500380884000008BA00840ABA0A031949
:100E3000800A84033A088000B40A0319B50AB60888
:100E40000319B703B603F92E3408B8003508B90002
:100E50003608BA003708BB00C82608000130B500C4
:100E6000E630B4000A30B600B7013208B8003308E3
:100E7000B900F9260130B5004030B4000E30B6009C
:100E8000B7013208B8003308B900F9260130B500BF
:100E90004E30B4000E30B600B7013208B800330847
:100EA000B900F9260130B5005C30B4000E30B60050
:100EB000B7013208B8003308B900F9260130B5008F
:100EC000A030B4000E30B600B7013208B8003308C5
:100ED000B900F9260130B500AE30B4000E30B600CE
:100EE000B7013208B8003308B900F9260130B5005F
:100EF000BC30B4000E30B600B7013208B800330879
:100F0000B900F9260130B500CA30B4000E30B60081
:100F1000B7013208B8003308B900F9260130B5002E
:100F2000D830B4000E30B600B7013208B80033082C
:100F3000B900F9260130B5002030B4002030B600E9
:100F4000B7013208B8003308B900F92608002400B8
:100F5000B401B501C001A530C1001F230130B600A6
:100F6000B7010230B9003630B800822508003408D5
:100F7000B8003508B9003708003C0318CA2F3908F3
:100F8000850038088400B80A0319B90A36088000B9
:100F9000B703BB2F3408BA003508BB000800FB2597
:100FA0000800D501D601D701D801D901D51A08000A
:100FB000511CE82F4D08D6074E0803184E0FD707CF
:100FC0004F0803184F0FD80750080318500FD907C0
:100FD0000310D40CD30CD20CD10C0310CD0DCE0DBC
:100FE000CF0DD00DD50AD62FCE01CF01D001D10122
:100FF000D401D501D601D701D20120305205D3004A
:10100000D308031D0800D435D50DD60DD70DC10D5D
:10101000C20DC30DC40DCE0DCF0DD00DD10D48089E
:1010200051028831031D1E2847085002031D1E2847
:1010300046084F02031D1E2845084E02031C2F2898
:101040004508CE024608031C460FCF024708031C82
:10105000470FD0024808031C480FD1025414D20A8B
:101060008031FD2F200091109112210091109116D6
:1010700023001F129F159F101F101E139E121E1279
:101080009E111E111E109D171D139D161D169C01ED
:101090001F309B0008002100951295111511951421
:1010A00015148B160B1108002400AF01B001083095
:1010B0002F02300803185E2803196028B01F0800AB
:1010C0000030B4002030B3002F08BD000B30BE004C
:1010D0008031AA214C083307B1003408B20003184C
:1010E000B20A00308500E03084002F08B9000310F8
:1010F000390D84070008B500840A0008B6003208DC
:10110000850031088400033084070008BA003A08DB
:10111000003A883103195729013A03195729033A2C
:1011200003199628013A0319962857293208850091
:1011300031088400093084070008BB00840ABB081A
:10114000031DA52880080319B52832088500310839
:101150008400093084070008BB00840ABB08031917
:101160008003BB0384033B088000320885003108FC
:101170008400093084070008BB00840ABB08031DF3
:10118000F5288008031DF528320885003108840001
:1011900080080319DE2836088500350884000630EB
:1011A00084070008023A031DDE2832088500310852
:1011B00084000330840701308000572932088500FD
:1011C0003108840003308407003080002F08CB00F2
:1011D000CC0136088500350884000D3084070008EE
:1011E000CD0080319521883157293208850031089A
:1011F0008400033084070008033A031D572932088E
:10120000850031088400073084070008BF00840A85
:101210000008C00031088400093084070008D100AC
:10122000840A0008D20031088400043084070008D2
:10123000CD00CE01CF01D001D301D4018031D1271F
:101240005608C1005708C2005808C3005908C90011
:10125000CA014908C4008831C91F3A29C109C20915
:10126000C309C409C10A0319C20A0319C30A03192D
:10127000C40ACA0A3F08C5004008C600C701C80121
:101280008031F4275408BB0088314A1C4929BB0926
:10129000BB0A2F08CB003B08CC0036088500350878
:1012A00084000D3084070008CD0080319521240092
:1012B000AF0A0319B00A88315728230067082400B1
:1012C0003006031D0800B2010130B300B401103034
:1012D0003302340803186E2903197029B41F08005B
:1012E00001308500203084003308B5000310350D2F
:1012F000840731080006031D8C2901308500203049
:1013000084003308B7000310370D8407840A0008EF
:10131000B60080313E230800B30A0319B40A6729D6
:10132000B301B401083033023408031899290319B2
:101330009B29B41F080000308500E030840033088A
:10134000B7000310370D84070008B500840A0008B1
:10135000B6000030BB002030BA003308BD000B30AF
:10136000BE008031AA214C083A07B8003B08B900FA
:101370000318B90A360885003508840080088831CA
:101380000319E82A36088500350884000C308407E4
:1013900031080006031D7E2A3608850035088400C2
:1013A0000B308407000A031DDC2923006608240093
:1013B0003006031D7E2AE62936088500350884009C
:1013C0000B30840700083006031D7E2A360885008E
:1013D000350884000A3084070008BC003C08013A44
:1013E0000319F629033A0319452A7E2A360885008F
:1013F00035088400073084070008CD00840A0008FF
:10140000CE00CF01D00184033208D100D201D30134
:10141000D4018031D1275608C1005708C2005808AE
:10142000C3005908C900CD014908C4008831C91F4B
:10143000252AC109C209C309C409C10A0319C20A7C
:101440000319C30A0319C40ACD0A7F30C500C601B7
:10145000C701C8018031F4275408CC005508CB00DF
:1014600088314D1C382ACC09CB09CC0A0319CB0A88
:10147000390885003808840005308407840A4B0841
:10148000800084034C0880007E2A3208403C031808
:10149000582A3208C000BF01C035BF0DC00A390844
:1014A0008500380884000430840740088000632ADF
:1014B0003208BF00BF353908850038088400043081
:1014C00084073F08800039088500380884008008B8
:1014D00003197E2A3308CB003908850038088400B8
:1014E000043084070008CC003608850035088400E5
:1014F0000D3084070008CD00803195212400360886
:101500008500350884000008023A8831031DE82A66
:10151000360885003508840002308407000831064B
:10152000031DE82A36088500350A8400000A031DD9
:10153000A02A2300660824003006031DE82AA82AF2
:1015400036088500350A840000083006031DE82AA5
:10155000360885003508840004308407000832020C
:10156000031CD32A3608850035088400053084071B
:1015700032080002031CD32A390885003808840089
:10158000023084078008031DE82A390885003808DE
:10159000840002308407013080003308C2008031AB
:1015A00059228831E82A3908850038088400023039
:1015B000840780080319E82A390885003808840060
:1015C00002308407003080003308BC008031B7212E
:1015D0002400B30A0319B40A88319229B301B40173
:1015E0000830330234080318F72A0319F92AB41F04
:1015F000080000308500E03084003308B700031095
:10160000370D84070008B500840A0008B6000030D2
:10161000BB002030BA003308BD000B30BE00803163
:10162000AA214C083A07B8003B08B9000318B90AC8
:10163000360885003508840000038831031D082C16
:1016400036088500350A8400000A031D2E2B23006E
:10165000660824003006031D082C362B360885004A
:10166000350A840000083006031D082C3608850062
:10167000350884000230840700083102031C082C5E
:1016800036088500350884000330840731080002DD
:10169000031C082C360885003508840004308407B4
:1016A00000083202031CEE2B360885003508840042
:1016B0000530840732080002031CEE2B3608850033
:1016C00035088400093084070008BC003C08013A52
:1016D00003196E2B033A0319BD2BE12B3608850045
:1016E00035088400073084070008CD00840A00080C
:1016F000CE00CF01D00184033208D100D201D30142
:10170000D4018031D1275608C1005708C2005808BB
:10171000C3005908C900CD014908C4008831C91F58
:101720009D2BC109C209C309C409C10A0319C20A10
:101730000319C30A0319C40ACD0A7F30C500C601C4
:10174000C701C8018031F4275408CC005508CB00EC
:1017500088314D1CB02BCC09CB09CC0A0319CB0A1C
:10176000390885003808840005308407840A4B084E
:10177000800084034C088000E12B3208BF00BF3595
:101780003908850038088400043084073F08800049
:101790003808840080080319E12B3308CB0039088E
:1017A000850038088400043084070008CC0036081F
:1017B0008500350884000D3084070008CD00803195
:1017C0009521240039088500380A840031088000FA
:1017D0003308C200803159228831082C390885002D
:1017E000380A840031080006031D082C39088500DA
:1017F0003808840080080319012C3308BC008031AC
:10180000B721240039088500380A840000308000A0
:101810002400B30A0319B40A8831F02A01302100E8
:10182000E1004030E0000130E3004E30E2000130E2
:10183000E5005C30E4000130E700A030E600013054
:10184000E900AE30E8000130EB00BC30EA000130C6
:10185000ED00CA30EC000130EF00D830EE0001306E
:101860002400B500E630B400B6010A30B70080317C
:10187000B727B001B10108303002310888310318B0
:10188000432C0319452CB11F712C0030B9002030B6
:10189000B8003008BD000B30BE008031AA214C08D2
:1018A0003807B4003908B5000318B50AB6010B3083
:1018B000B700B72700308500E03084003008B20060
:1018C0000310320D84070008B400840A0008B50034
:1018D000B6010E30B700B727B00A0319B10A883134
:1018E0003B2CAE01AF0110302E022F0803187A2CCA
:1018F00003197C2CAF1F08000130B5002030B40064
:101900002E08B0000310300DB4070318B50AB60155
:101910000230B7008031B7270130850020308400C5
:101920002E08B0000310300D8407FF308000AE0A8F
:101930000319AF0A8831732C2400BB01803175254F
:101940003C08A53A031D0800AE01AF010130B0000C
:10195000B1010230B3003030B2002E270800210060
:101960000C158C168E148E160C30250093009A00E0
:10197000260093009A00250091019801260091010C
:10198000980125009E01023020009C00FE309B0043
:1019900091101C15911CCA2C21000C118C128E1058
:1019A0008E1200302400B5007830B400B601083043
:1019B000B7008031B727080023009D1CE12C1D12C1
:1019C0001D1622006D086C06031DE92C2400B301CE
:1019D000080000308500A03084006D0884070008EE
:1019E0002400AF002200ED0A3F30ED05EE08031998
:1019F000FD2CEF012400B30108000C160A3024006E
:101A0000A800F0302F05B0003008F03A031D732D08
:101A10002F08F83A0319252D023A0319252D013A0A
:101A20000319252D073A0319252D0D3A0319282DE1
:101A3000023A0319282D013A0319282D023A0319F5
:101A4000372D073A03193A2DDC2C2F08B300080074
:101A5000A1012F082200EF0024002F08F23A031DF5
:101A6000342D0230A000DC2C0130A000DC2C023030
:101A7000A300DC2C2308013A0319702D013A031945
:101A8000702D053A031D592D22000C168031A72711
:101A9000FA30B5001321FA30B5001321FA30B50041
:101AA0001321FA30B500132122000C12CF27883100
:101AB000702DB4010A30340203186E2D22000C166A
:101AC00064302400B5008031132122000C126430F0
:101AD0002400B5001321B40A88315A2D8031CF2754
:101AE000A3018831DC2C80302F05B100B201B10890
:101AF0000319B20AB208031DA32DA301A1012F08E7
:101B00002200EF00F03024002F05B4003408C03A62
:101B100003199D2D103A03199D2D703A0319A02D1C
:101B2000203A0319A02D103A0319A02D203A0319C9
:101B3000A02D503A0319A02DA02D0130A000DC2CBF
:101B40000230A000DC2C2308023A0319C02D013A10
:101B50000319CB2D073A0319D72D013A0319E32DA9
:101B6000033A0319E72D013A0319EB2D0F3A031934
:101B7000EF2D093A0319DC2C013A0319FE2DDC2C58
:101B8000AF08031DC62D0330B400C82D0130B400CA
:101B90003408A300DC2C2F087F3A031DD22D04301B
:101BA000B400D42D0130B4003408A300DC2C2F087D
:101BB000193A031DDE2D0530B400E02D0130B400CC
:101BC0003408A300DC2C2F08A400A30ADC2C2F0867
:101BD000A500A30ADC2C2F08A600A30ADC2C2408ED
:101BE000B4002508B5002608B6002F08B7008031DC
:101BF000242705302400A3008831DC2C2200EF08C4
:101C00000319DC2C013085006A308400240021088F
:101C1000A10A84072F08800020082102031CDC2C65
:101C2000A101F03022006F052400B4003408803A8E
:101C30000319242E103A0319242E203A0319242EB6
:101C4000703A0319242EDC2C22006F082400B30004
:101C500008007A3021009900843022009D00013074
:101C60009E00CB3021008C00C0308E0023008C0100
:101C70008E0122008C018E0124008C152100951309
:101C800022000C1664302400B5008031132122009C
:101C90000C1264302400B500132122000C166430AD
:101CA0002400B500132122000C1264302400B5007A
:101CB00013218831AF2440302000980088314B2018
:101CC00032208B170B17200018140E249C24FB25A0
:101CD00022000C1664302400B500132122000C12DF
:101CE00064302400B500132122000C166430240057
:101CF000B500132122000C1264302400B50013211A
:101D0000AA01AB01AC01AD01A70888310319DD2E92
:101D1000A7015420A8080319912EA80B912E220088
:101D20000C1220008C19C22E2400AA08031DAA2E12
:101D3000AB08031DAA2E8031CF272200EE0101300F
:101D40002400AA00AB0122000C16FF302400A800DA
:101D50008831C52E2B08033C031DB02E2A08E83C11
:101D60000318BE2EAB1BBE2E01302200EE00240055
:101D7000AC0122000C162400A801C52EAA0A0319E2
:101D8000AB0AC52E2400AA01AB012200EE080319FC
:101D9000DD2E2400AC0A031DDD2EAF0122000C1A3B
:101DA000D32E2400AF0A24002F1CD82E22000C169C
:101DB00024002F18DD2E22000C12DC243308AE0084
:101DC000AE080319202FF0302E05AF002F08803AFF
:101DD0000319F42E103A0319FE2E203A03190B2F83
:101DE000703A0319182F202F0F302E05B000220053
:101DF0006A082400B100B201EE22202F0F302E0518
:101E0000B00022006A082400B10022006B08240000
:101E1000B200EE22202F0F302E05B00022006A08FB
:101E20002400B10022006B082400B2009021202F72
:101E30000F302E05B00022006A082400B1005D2199
:101E4000AD088831031D6C2FAF01F8080319AF0AE4
:101E5000B001AF080319B00A301C302F22000E1455
:101E600024003018352F22000E102400AF01F9088D
:101E70000319AF0AB001AF080319B00A301C422F92
:101E800022000E1524003018472F22000E112400C6
:101E9000AF01FA080319AF0AB001AF080319B00A7D
:101EA000301C542F22008E1524003018592F220088
:101EB0008E112400AF01FB080319AF0AB001AF086F
:101EC0000319B00A301C662F22000E1624003018A9
:101ED000872F22000E12872F2D0878020318722FE9
:101EE00022000E1024002D0879020318792F2200F9
:101EF0000E1124002D087A020318802F22008E1163
:101F000024002D087B020318872F22000E122400C4
:101F1000AD0A842E00308500A03084003F302100BF
:101F2000DF008001840A8831DF0B912F2200EC0151
:101F3000ED01EE01EF012400A0012200EA01EB0116
:101F40002400A101A201A301A401A501A601A701EA
:101F5000A801F801F901FA01FB01FC01FD01FE01F4
:101F6000FF010030A90001308500403084000D30B1
:101F70002200CD008001840ACD0BBA2F01308500EC
:101F80004E3084000D30DB008001840ADB0BC42F4F
:101F9000013085005C3084000D30E9008001840A46
:101FA000E90BCE2F01308500A03084000D302300D6
:101FB000AD008001840AAD0BD92F01308500AE3011
:101FC00084000D30BB008001840ABB0BE32F01307D
:101FD0008500BC3084000D30C9008001840AC90B23
:101FE000ED2F01308500CA3084000D30D70080010C
:101FF000840AD70BF72F01308500D83084000D30CC
:10200000E5008001840A9031E50B0128003085004D
:10201000E03084000F302100EF008001840AEF0BD4
:102020000D282300E601E701E801E901EA01EB01DF
:10203000EC01ED01EE01EF0100308500203084005D
:102040005730F7008001840AF70B22280130850001
:10205000203084001F302200BF008001840ABF0BA3
:102060002D288831292E0B1D3C2805302000950095
:1020700001302400A7000B112000911E090023004D
:1020800019082400DA0022006C0A2400DB003F302B
:10209000DB0522006D0824005B0603195C28003074
:1020A0008500A030840022006C08840724005A08B0
:0E20B00080005B082200EC0020009112090065
:020000040001F9
:02000E00A4FF4D
:02001000FFDE11
:00000001FF
