:020000040000FA
:100000009E31252E0000000090312628FF3F370842
:10001000B8000030B9001330B8070318B90A39081E
:100020008A00380882000034003400340034003480
:100030000034003400340034003400340034003420
:100040000034003400340034003400340034003410
:1000500000340034003400340034003400340134FF
:1000600001340134013401340134013401340134E8
:1000700001340134013401340234023402340234D4
:1000800002340234023402340334033403340334BC
:1000900003340334033404340434043404340434A3
:1000A0000534053405340534063406340634063484
:1000B0000734073407340734083408340834093463
:1000C000093409340A340A340A340B340B340B343F
:1000D0000C340C340D340D340D340E340E340F3416
:1000E0000F341034103411341134123412341334E8
:1000F00013341434143415341534163416341734B8
:1001000018341834193419341A341B341B341C3481
:100110001D341D341E341F34203420342134223445
:100120002334233424342534263427342734283404
:1001300029342A342B342C342D342E342F343034BB
:10014000313432343234333434343634373438346E
:1001500039343A343B343C343D343E343F3440341B
:1001600042344334443445344634483449344A34C0
:100170004B344D344E344F3451345234533455345F
:100180005634573459345A345C345D345F346034F7
:100190006234633465346634683469346B346D3486
:1001A0006E347034723473347534773478347A340E
:1001B0007C347E347F34813483348534873489348D
:1001C0008A348C348E349034923494349634983407
:1001D0009A349C349E34A034A234A434A734A93475
:1001E000AB34AD34AF34B134B434B634B834BA34DB
:1001F000BD34BF34C134C434C634C834CB34CD3438
:10020000D034D234D534D734DA34DC34DF34E1348A
:10021000E434E734E934EC34EF34F134F434F734D3
:10022000F934FC34FF34ED08031D17290800F930B8
:1002300000000000000000000000000000000000BE
:100240000000000000000000FF3E031D1829000010
:10025000000000000000000000000000000000009E
:100260000000000000000000ED0B17290800B50891
:1002700003194229230061082400B6003408B7009E
:100280000720B400003085006830840033088407FC
:100290003408000603190800003085006830840027
:1002A00033088407340880003308003A803103198A
:1002B0006F29013A03197529033A03197B29013A79
:1002C00003198129073A03198729013A03198B2950
:1002D000033A03198F29013A031993290800340AB4
:1002E000031D080022000E140800340A031D080034
:1002F00022000E150800340A031D080022008E1586
:100300000800340A031D080022000E1608003408F5
:1003100026009100080034082600980008003408E0
:100320002500910008003408250098000800B3015A
:10033000B401B3190800261C9F292508B407A60C90
:100340000310A50DB30A99290030AA002030A90096
:100350002408A5000930A600972134082907A70022
:100360002A08A8000318A80A01308500203084005C
:100370002408AD0003102D0D84070008AB00840A8B
:100380000008AC0028088500270A84000003031D2C
:10039000342A2C0885002B088400053084070008C7
:1003A000AE002E08033A0319D929063A0319F32996
:1003B000202A2808850027088400033084070008C5
:1003C000B100840A0008B0002708840007308407C1
:1003D000840A30088000840331088000270A8400E2
:1003E00002308000342A2808850027088400033062
:1003F00084070008B100840A0008B00027088400C0
:1004000007308407840A30088000840331088000A4
:1004100027088400033084070008B100840A00081C
:10042000B0002708840005308407840A3008800063
:10043000840331088000270A840003308000342AB6
:100440002408B300B4012C0885002B0884000C306C
:10045000840702300005B5003721240028088500F4
:10046000270A8400003080002808850027088400BF
:100470000030800008000030AE002030AD002A08B7
:10048000A5000930A600972134082D07AB002E08DF
:10049000AC000318AC0A01308500203084002A0823
:1004A000B1000310310D84070008AF00840A000872
:1004B000B000300885002F0884000530840700084C
:1004C000B2003208003A0319752A033A0319752A53
:1004D000063A0319752A013A03197C2A053A0319C9
:1004E000A92A033A0319A92AA92A2C0885002B0A4C
:1004F000840001308000C22A2C0885002B0884006B
:10050000033084070008B500840A0008B4002B08F3
:10051000840007308407840A340880008403350887
:1005200080002B088400033084070008B500840A8B
:100530000008B4002B08840005308407840A3408BE
:1005400080008403350880002B0A8400033080007B
:10055000C22A2C0885002B08840003308407000879
:10056000B500840A0008B4002B0884000730840713
:10057000840A340880008403350880002B0A840034
:10058000023080002A08B3002C0885002B08840064
:10059000023084070008B400300885002F0884006A
:1005A0000C30840702300005B500372124002C08E8
:1005B00085002B0884000130800008002300951876
:1005C000DE2A2400280823009100240029082300A3
:1005D00093009513151524002A108B1B2A148B13D6
:1005E000553023009600AA3096009514151124006A
:1005F0002A188B172A1C8B1308000130EF002400E7
:10060000A001A1010830200221080318092B0319B9
:100610000B2BA11F0800013085002030840020082A
:10062000A2000310220D8407840A0008A30084039B
:1006300000088400230885000008033A031D2F2BBF
:1006400023006F086E0503192B2B24002008AA0035
:100650003B2280312F2B24002008A400A42123005A
:10066000EF352400A00A0319A10A8031022B0030C3
:10067000A900E030A8002408AA0003102A0DA8074A
:100680000318A90A2508013A03194A2B033A03194A
:10069000612B0800A6080319542B29088500280897
:1006A0008400270880005A2B290885002808840028
:1006B000FF30800029088500280A8400003080006F
:1006C0000800A7080319762B2603AC000130AB0005
:1006D0002C08FF3903196F2BAB35FF3E692B290816
:1006E0008500280A84002B0880040800290885005A
:1006F000280A84002603AD000130AB00AC012D08B0
:10070000FF390319872BAB35AC0DFF3E802B2B092E
:100710008005080001308500203084002408AA00EC
:1007200003102A0D84070008A800840A0008A90005
:100730002508003A0319CA2B033A0319CA2B073AB2
:100740000319CA2B053A0319D12B033A0319D12BEC
:10075000083A0319E82B013A0319F72B073A031952
:10076000062C3E3A03190F2C013A0319222C073AA2
:1007700003192B2C723A03194D2C013A0319562CEC
:100780000F3A03195F2C013A0319702C753A0319BB
:10079000792C080029088500280884002508800095
:1007A00008002908850028088400250880000230F8
:1007B000840727088000280884000330840701305C
:1007C000800028088400043084077F3080000800FF
:1007D000A7080319EE2B2703AB00F02BFF30AB006B
:1007E00029088500280A84002B08800008002908B1
:1007F0008500280884000330840727088000280823
:100800008400043084072708800008002908850038
:100810002808840004308407270880000800A708FF
:1008200003191A2C29088500280884000C30840735
:100830000010080029088500280884000C3084076F
:100840000014080029088500280884000530840762
:100850002708800008002608AC00AB01AC0DAB0DEA
:10086000AC0DAB0DAC0DAB0DAC0DAB0DAC0DAB0DC4
:10087000AC0DAB0DAC0DAB0D8030AC052708AC0456
:10088000290885002808840006308407840A2B087C
:10089000800084032C0880000800290885002808AF
:1008A0008400083084072708800008002908850094
:1008B0002808840009308407270880000800A7085A
:1008C0000319652C2703AB00672CFF30AB00290808
:1008D0008500280884000A3084072B08800008005F
:1008E00029088500280884000B3084072708800029
:1008F0000800A7080319842C29088500280884000B
:100900000C3084078014080029088500280884001A
:100910000C3084078010080024080A3A0319A92C17
:100920001E3A0319AD2C273A0319B12C073A0319C3
:10093000B52C723A0319CE2C013A0319D22C0F3A76
:100940000319D62C013A0319E12C753A0319E52C49
:10095000080026032200E400080026032200E50028
:10096000080026082200E600080025082200E7000B
:10097000E801E70DE80DE70DE80DE70DE80DE70DDF
:10098000E80DE70DE80DE70DE80DE70DE80D803007
:10099000E705240026082200E704080026082200B4
:1009A000E900080026082200EA000800A60803194A
:1009B000DD2C26032200EB000800FF302200EB00B4
:1009C000080026082200EC000800A6080319EB2CFA
:1009D0002200ED1408002200ED1008002408003C5D
:1009E00025080318031DA51B0800270885002608F5
:1009F00084000008A800230885002208840000085D
:100A0000A900DE2227088500260884000008A80027
:100A1000840AA80A0319800A840328088000A20A0D
:100A20000319A30AA4080319A503A403EE2C2300A9
:100A30009518172D240023082300910095131514F1
:100A400013082400A40008000130A3006430A200B1
:100A50000A30A400A5012008A6002108A700EE2462
:100A60000130A3003030A2000D30A400A501200801
:100A7000A6002108A700EE240130A3003D30A2000B
:100A80000D30A400A5012008A6002108A700EE242F
:100A90000130A3004A30A2000D30A400A5012008B7
:100AA000A6002108A700EE240130A3005730A200C1
:100AB0000D30A400A5012008A6002108A700EE24FF
:100AC0000130A300A030A2000D30A400A501200831
:100AD000A6002108A700EE240130A300AD30A2003B
:100AE0000D30A400A5012008A6002108A700EE24CF
:100AF0000130A300BA30A2000D30A400A5012008E7
:100B0000A6002108A700EE240130A300C730A200F0
:100B10000D30A400A5012008A6002108A700EE249E
:100B20000030A300E030A2002030A400A50120087E
:100B3000A6002108A700EE2408002300EC01ED0127
:100B400008306C026D080318A72D0319A92DED1F9D
:100B5000692E00302400A3002030A20023006C087E
:100B60002400A5000930A60097213408220723009D
:100B7000EE00240023082300EF000318EF0A0130E1
:100B80008500203084006C082400A9000310290D82
:100B900084070008A700840A0008A8002808850028
:100BA000270884000C308407001C192E28088500B3
:100BB000270884000530840722006608800024008E
:100BC0002708840006308407840A2200670824006E
:100BD000AA00220068088000840324002A088000FC
:100BE0002708840008308407220069088000240058
:100BF000270884000930840722006A088000240046
:100C0000270884000A30840722006B088000240033
:100C1000270884000B30840722006C088000013014
:100C20006D042400AA00270884000C3084072A08D9
:100C3000800023006F0885006E088400003080006B
:100C4000840A0030800024002808850027088400DA
:100C5000063084070008AC00840A0008AB002300BB
:100C60006F0885006E08840003308407840A24001E
:100C70002B08800084032C08800023006E08840069
:100C800002308407FF3080002400280885002708F0
:100C900084000008043A031D542E23006C0824002D
:100CA000AA003B228031632E23006C082400B3008D
:100CB000B40128088500270884000C30840702301E
:100CC0000005B50037212300EC0A0319ED0A803135
:100CD000A02D210061082300EE00FD22080020085D
:100CE000643A031D7B2E2108A4002208A5002308D6
:100CF000A6008C24080001302002031C8D2E200841
:100D0000083C031C8D2E2003A4002108A500220806
:100D1000A6002308A7008A2308000A302002031C2B
:100D200008002008193C031C08000A302002A40017
:100D30002108A5002208A6002308A70037230800E1
:100D400023006E08003C6F080318031DEF1B08000A
:100D5000240021088500200884000008A30017252E
:100D60002408A20023006D0885006C08840024007C
:100D70002208800021088500200884000008A200C5
:100D8000840AA20A0319800A84032208800023002F
:100D9000EC0A0319ED0AEE080319EF03EE03A02E87
:100DA0006C082400A00023006D082400A10023008B
:100DB0006E082400A20023006F082400A3006F2601
:100DC00008000130ED006430EC000A30EE00EF0165
:100DD0006A082400A00023006B082400A100A026BC
:100DE0000130ED003030EC000D30EE00EF016A080C
:100DF0002400A00023006B082400A100A0260130DD
:100E0000ED003D30EC000D30EE00EF016A082400EB
:100E1000A00023006B082400A100A0260130ED00F3
:100E20004A30EC000D30EE00EF016A082400A0000B
:100E300023006B082400A100A0260130ED005730EC
:100E4000EC000D30EE00EF016A082400A000230042
:100E50006B082400A100A0260130ED00A030EC00BA
:100E60000D30EE00EF016A082400A00023006B089B
:100E70002400A100A0260130ED00AD30EC000D30C3
:100E8000EE00EF016A082400A00023006B08240094
:100E9000A100A0260130ED00BA30EC000D30EE00CC
:100EA000EF016A082400A00023006B082400A100C1
:100EB000A0260130ED00C730EC000D30EE00EF0150
:100EC0006A082400A00023006B082400A100A026CB
:100ED0000030ED00E030EC002030EE00EF016A0859
:100EE0002400A00023006B082400A100A026080015
:100EF0002300EC01ED012400A801A330A900DE22AB
:100F000001302300EE00EF0101302400A100EE309B
:100F1000A000242508006C082400A00023006D0810
:100F20002400A10023006F08003C0318A42F240014
:100F30002108850020088400A00A0319A10A2300C3
:100F40006E088000EF03922F6C082400A20023009B
:100F50006D082400A30008009D250800BD01BE0106
:100F6000BF01C001C101BD1A0800391CC52F3508D9
:100F7000BE0736080318360FBF0737080318370FA8
:100F8000C00738080318380FC1070310BC0CBB0C8E
:100F9000BA0CB90C0310B50DB60DB70DB80DBD0ADE
:100FA000B32FB601B701B801B901BC01BD01BE0143
:100FB000BF01BA0120303A05BB00BB08031D080081
:100FC000BC35BD0DBE0DBF0DA90DAA0DAB0DAC0DF1
:100FD000B60DB70DB80DB90D30083902031DFA2F43
:100FE0002F083802031DFA2F2E083702031DFA2F8F
:100FF0002D0836028831031C0C282D08B6022E0855
:10100000031C2E0FB7022F08031C2F0FB802300845
:10101000031C300FB9023C14BA0A8031DA2F2000C9
:101020009110911221009110911623001F129F150B
:101030009F101F101E139E121E129E111E111E10B5
:101040009D171D139D161D169C011F309B00080047
:101050002100951295111511951415148B160B116D
:1010600008002300E701E801083067026808031858
:101070003B2803193D28E81F08000030EC00203011
:10108000EB0067082400A5000930A60080319721F5
:10109000340823006B07E9006C08EA000318EA0A29
:1010A000013085002030840067082400A10003106F
:1010B000210D840700082300ED00840A0008EE00DB
:1010C0006A088500690A840000082400A20022083A
:1010D000003A883103194729013A03194729033A8D
:1010E00003197628013A03197628472923006A084C
:1010F0008500690884000730840700082400A300E5
:10110000840AA308031D872880080319992823004F
:101110006A088500690884000730840700082400F5
:10112000A300840AA30803198003A30384032308EC
:10113000800023006A08850069088400073084075E
:1011400000082400A300840AA308031DDC288008EB
:10115000031DDC2823006A088500690884008008D4
:101160000319C3286E0885006D08840005308407C4
:101170000008023A031DC3286A088500690A840032
:101180000130800047296A088500690A8400003020
:10119000800067082400B300B40123006E088500B6
:1011A0006D0884000C308407023000052400B5006F
:1011B000803137218831472923006A088500690A70
:1011C00084000008033A031D47296A08850069085E
:1011D00084000530840700082400A700840A000862
:1011E000A800230069088400073084070008240051
:1011F000B900840A0008BA0023006908840002309C
:10120000840700082400B500B601B701B801BB018E
:10121000BC018031AE273E08A9003F08AA00400863
:10122000AB004108B100B2013108AC008831B11FF8
:101230002529A909AA09AB09AC09A90A0319AA0A0F
:101240000319AB0A0319AC0AB20A2708AD00280833
:10125000AE00AF01B0018031D1273C08A300883136
:10126000321C3429A309A30A230067082400B30011
:101270002308B40023006E0885006D0884000C303C
:101280008407023000052400B50080313721230097
:10129000E70A0319E80A8831342822006508230088
:1012A0006806031D0800EA010130EB00EC01103074
:1012B0006B026C0803185E2903196029EC1F0800F3
:1012C00000308500E03084006B08ED0003106D0DE8
:1012D000840769080006031D7C2900308500E03082
:1012E00084006B08EF0003106F0D8407840A000868
:1012F000EE008031FD220800EB0A0319EC0A5729A1
:10130000EB01EC0108306B026C0803188929031902
:101310008B29EC1F080001308500203084006B0809
:10132000EF0003106F0D84070008ED00840A000829
:10133000EE0000302400A3002030A20023006B0840
:101340002400A5000930A600803197213408220727
:10135000A0002308A1000318A10A23006E0885003D
:101360006D088400800888310319DB2A6E08850027
:101370006D0884000B30840769080006031D7F2A6E
:101380006E0885006D0884000A308407000A031D7A
:10139000D0292200640823006806031D7F2ADA2969
:1013A0006E0885006D0884000A308407000868060E
:1013B000031D7F2A6E0885006D08840009308407AC
:1013C00000082400A4002408013A0319EB29033A79
:1013D00003193E2A7F2A23006E0885006D088400C9
:1013E0000630840700082400B500840A0008B6000F
:1013F000B701B801840323006A082400B900BA01C8
:10140000BB01BC018031AE273E08A9003F08AA00FD
:101410004008AB004108B100B5013108AC0088318B
:10142000B11F1E2AA909AA09AB09AC09A90A031907
:10143000AA0A0319AB0A0319AC0AB50A7F30AD003A
:10144000AE01AF01B0018031D1273C08B4003D08A6
:10145000B3008831351C312AB409B309B40A031921
:10146000B30A210885002008840003308407840A19
:10147000330880008403340880007F2A23006A0830
:10148000403C0318532A6A082400A800A701A83585
:10149000A70DA80A210885002008840002308407CF
:1014A000280880005F2A6A082400A700A7352108C1
:1014B0008500200884000230840727088000210866
:1014C000850020088400800803197F2A23006B0808
:1014D0002400B3002108850020088400023084071E
:1014E0000008B40023006E0885006D0884000C30ED
:1014F0008407023000052400B50080313721230025
:101500006E0885006D0884000008023A8831031DCA
:10151000DB2A6E0885006D0884000230840700080D
:101520006906031DDB2A6E0885006D0A8400000A27
:10153000031DA12A2200640823006806031DDB2A7C
:10154000A92A6E0885006D0A840000086806031D3C
:10155000DB2A6E0885006D088400033084070008CC
:101560006A02031CCD2A6E0885006D0884000430D1
:1015700084076A080002031CCD2A24002108850084
:10158000200884008008031DDB2A23006B08240048
:10159000AA0080313B228831DB2A24002108850003
:1015A0002008840080080319DB2A23006B0824002C
:1015B000A4008031A4212300EB0A0319EC0A88312E
:1015C0008229EB01EC0108306B026C080318EA2A4F
:1015D0000319EC2AEC1F080001308500203084003C
:1015E0006B08EF0003106F0D84070008ED00840AFC
:1015F0000008EE0000302400A3002030A2002300E9
:101600006B082400A5000930A6008031972134081A
:101610002207A0002308A1000318A10A23006E08D6
:1016200085006D08840000038831031DF02B6E08CF
:1016300085006D0884000230840700086906031DD8
:10164000F02B6E0885006D0A8400000A031D2F2B05
:101650002200640823006806031DF02B372B6E0858
:1016600085006D0A840000086806031DF02B6E08D3
:1016700085006D0884000330840700086A02031C9B
:10168000E22B6E0885006D088400043084076A0828
:101690000002031CE22B6E0885006D0884000830F0
:1016A000840700082400A4002408013A03195C2BD5
:1016B000033A0319AF2BDA2B23006E0885006D085F
:1016C00084000630840700082400B500840A00085E
:1016D000B600B701B801840323006A082400B900EA
:1016E000BA01BB01BC018031AE273E08A9003F080A
:1016F000AA004008AB004108B100B5013108AC00B8
:101700008831B11F8F2BA909AA09AB09AC09A90A15
:101710000319AA0A0319AB0A0319AC0AB50A7F30E8
:10172000AD00AE01AF01B0018031D1273C08B4005B
:101730003D08B3008831351CA22BB409B309B40AA3
:101740000319B30A210885002008840003308407A8
:10175000840A33088000840334088000DA2B2300D5
:101760006A082400A700A735210885002008840006
:1017700002308407270880002008840080080319AD
:10178000DA2B23006B082400B30021088500200811
:101790008400023084070008B40023006E0885002E
:1017A0006D0884000C308407023000052400B50069
:1017B0008031372123006B082400AA0080313B22AE
:1017C0008831F02B2400210885002008840080083F
:1017D0000319F02B23006B082400A4008031A421FE
:1017E0002300EB0A0319EC0A8831E32A01302200B6
:1017F000A1003030A0000130A3003D30A200013034
:10180000A5004A30A4000130A7005730A6000130DF
:10181000A900A030A8000130AB00AD30AA00013013
:10182000AD00BA30AC000130AF00C730AE000130BF
:101830002300ED006430EC00EE010A30EF0080314F
:101840008B272300E801E901083068026908883124
:1018500003182C2C03192E2CE91F622C00302400B5
:10186000A1002030A000230068082400A500093052
:10187000A60080319721340820072300EC002400C3
:1018800021082300ED000318ED0AEE010930EF00F6
:101890008B27013085002030840023006808EA008F
:1018A00003106A0D84070008EC00840A0008ED00AC
:1018B000EE010D30EF008B272300E80A0319E90A37
:1018C0008831242CE601E70110306602670803180E
:1018D0006B2C03196D2CE71F08000030ED00E03081
:1018E000EC006608E8000310680DEC070318ED0A29
:1018F000EE010230EF0080318B2700308500E030B0
:10190000840023006608E8000310680D8407FF3098
:101910008000E60A0319E70A8831642C2400A30139
:10192000803117252408A33A031D08002300E6018F
:10193000E7010130E800E9010130EB00E830EA009E
:10194000E126080021000C158C168E148E160C3022
:10195000250093009A00260093009A00250091012B
:10196000980126009101980125009E010230200077
:101970009C00FE309B0091101C15911CBD2C210079
:101980000C118C128E108E12080023009D1CCA2C84
:101990001D121D1655085406031DD02CEB0108001E
:1019A00000308500A0308400550884070008E70057
:1019B000D50A3F30D505D6080319E12CD701EB0134
:1019C000080022000C160A302300E000F030670502
:1019D000E8006808F03A031D582D6708F83A031923
:1019E0000A2D023A03190A2D013A03190A2D073A62
:1019F00003190A2D0D3A03190D2D023A03190D2D65
:101A0000013A03190D2D023A03191A2D073A031949
:101A10001D2DC52C6708EB000800D9016708D70009
:101A20006708F23A031D172D0230D800C52C01308B
:101A3000D800C52C0230DB00C52C5B08013A031925
:101A4000542D013A0319542D053A031D3D2D220052
:101A50000C1680317827FA302300ED001321FA307C
:101A6000ED001321FA30ED001321FA30ED001321BF
:101A700022000C12AC278831542DEC010A306C0284
:101A80000318522D22000C1664302300ED00803123
:101A9000132122000C1264302300ED001321EC0A04
:101AA00088313E2D8031AC272300DB018831C52CE5
:101AB00080306705E900EA01E9080319EA0AEA0843
:101AC000031D862DDB01D9016708D700F0306705BB
:101AD000EC006C08C03A0319802D103A0319802DD0
:101AE000703A0319832D203A0319832D103A0319F4
:101AF000832D203A0319832D503A0319832D832D0A
:101B00000130D800C52C0230D800C52C5B08023A41
:101B10000319A32D013A0319AE2D073A0319BA2D63
:101B2000013A0319C62D033A0319CA2D013A0319C4
:101B3000CE2D0F3A0319D22D093A0319C52C013ABB
:101B40000319E12DC52CE708031DA92D0330EC0076
:101B5000AB2D0130EC006C08DB00C52C67087F3A28
:101B6000031DB52D0430EC00B72D0130EC006C08DE
:101B7000DB00C52C6708193A031DC12D0530EC00A8
:101B8000C32D0130EC006C08DB00C52C6708DC00BD
:101B9000DB0AC52C6708DD00DB0AC52C6708DE0000
:101BA000DB0AC52C5C08EC005D08ED005E08EE0069
:101BB0006708EF008031D02605302300DB00883134
:101BC000C52CD7080319C52C013085006E30840060
:101BD0005908D90A84076708800058085902031C6D
:101BE000C52CD901F0305705EC006C08803A031978
:101BF000032E103A0319032E203A0319032E703ACC
:101C00000319032EC52C5708EB0008007A30210079
:101C1000990022009D171D151E14CB3021008C0049
:101C2000C0308E0023008C018E0124008C15210011
:101C3000951322000C1664302300ED00803113212F
:101C400022000C1264302300ED00132122000C1638
:101C500064302300ED00132122000C1264302300B5
:101C6000ED0013218831A224403020009800282064
:101C70000F208B170B172000181400302300ED00E5
:101C80006830EC00EE010830EF0080318B2788319E
:101C9000F6238E249D2522000C1664302300ED00CF
:101CA000132122000C1264302300ED0013212200C6
:101CB0000C1664302300ED00132122000C12643056
:101CC0002300ED001321E201E301E401E501DF0857
:101CD00088310319BB2EDF013120E0080319742E6F
:101CE000E00B742E22000C1220008C19A22E23006F
:101CF000E208031D8C2EE308031D8C2E8031AC27D7
:101D00002300D6010130E200E30122000C16FF306F
:101D10002300E0008831A52E6308033C031D922EAA
:101D20006208E83C03189E2EE31B9E2E0130D6006D
:101D3000E40122000C162300E001A52EE20A03199B
:101D4000E30AA52E2300E201E301D6080319BB2E06
:101D5000E40A031DBB2EE70122000C1AB12E23005A
:101D6000E70A2300671CB62E22000C162300671812
:101D7000BB2E22000C12C5246B08E600E6080319EE
:101D8000FE2EF0306605E7006708803A0319D22E70
:101D9000103A0319DC2E203A0319E92E703A031980
:101DA000F62EFE2E0F306605E80022006E08230096
:101DB000E900EA01E122FE2E0F306605E80022006C
:101DC0006E082300E90022006F082300EA00E122E8
:101DD000FE2E0F306605E80022006E082300E900A1
:101DE00022006F082300EA008021FE2E0F306605D6
:101DF000E80022006E082300E9004D212300E508D9
:101E00008831031D5B2FE7012000E808031D0A2F1E
:101E10002300E70A2300E801E7080319E80A681C21
:101E2000132F22000E1423006818182F22000E1002
:101E30002300E7012000E908031D202F2300E70A03
:101E40002300E801E7080319E80A681C292F22008B
:101E50000E15230068182E2F22000E112300E70113
:101E60002000EA08031D362F2300E70A2300E801BB
:101E7000E7080319E80A681C3F2F22008E1523008B
:101E80006818442F22008E112300E7012000EB0880
:101E9000031D4C2F2300E70A2300E801E70803197C
:101EA000E80A681C552F22000E16230068187A2FA6
:101EB00022000E127A2F6508200068020318622F94
:101EC00022000E10230065082000690203186A2F03
:101ED00022000E112300650820006A020318722FE9
:101EE00022008E112300650820006B0203187A2F50
:101EF00022000E122300E50A672E00308500A03074
:101F000084003F302100DF008001840A8831DF0B2C
:101F1000842F2300D401D501D601D701D801220096
:101F2000EE01EF012300D901DA01DB01DC01DD0163
:101F3000DE01DF01E0012000E801E901EA01EB0137
:101F4000EC01ED01EE01EF0100302300E100013072
:101F50008500303084000C302200BC008001840AEF
:101F6000BC0BAE2F013085003D3084000C30C90021
:101F70008001840AC90BB82F013085004A308400E3
:101F80000C30D6008001840AD60BC22F01308500A8
:101F9000573084000C30E3008001840AE30BCC2F1F
:101FA00001308500A03084000C302300AC0080019B
:101FB000840AAC0BD72F01308500AD3084000C3083
:101FC000B9008001840AB90BE12F01308500BA30D5
:101FD00084000C30C6008001840AC60BEB2F013050
:101FE0008500C73084000C30D3008001840AD30BF5
:101FF000F52F01308500203084000F302200AF0023
:102000008001840A9031AF0B0028E401E501E6016C
:10201000E701E801E901EA01EB01EC01ED01003023
:1020200085002030840047302000E7008001840ACA
:10203000E70B162800308500E03084001F30FF00D9
:102040008001840AFF0B20288831062E0B1D2F28C3
:1020500005302000950001302300DF000B11200027
:10206000911E0900230019082400C2002300540A0D
:102070002400C3003F30C305230055082400430655
:1020800003194F2800308500A03084002300540835
:10209000840724004208800043082300D400200065
:1020A00091120900FF3FFF3FFF3FFF3FFF3FFF3F10
:1020B000FF3FFF3FFF3FFF3FFF3FFF3FFF3FFF3F30
:1020C000FF3FFF3FFF3FFF3FFF3FFF3FFF3FFF3F20
:1020D000FF3FFF3FFF3FFF3FFF3FFF3FFF3FFF3F10
:1020E000FF3FFF3FFF3FFF3FFF3FFF3FFF3FFF3F00
:103C40008A0188317D2FFF3FFF3FDF2FFF3FFF3F7E
:103C5000FF3FFB01FB0303190800FC01FC030319F0
:103C60002A2E00002E2EE0307605FA007A08230076
:103C700091007708FA007A08920015139517151627
:103C8000151555309600AA309600951400000000D6
:103C90009516F8014030780203186B2E003085002D
:103CA0002030840005308407780A840700089300D8
:103CB00020308400053084077808840700089400C9
:103CC00055309600AA309600951400000000910A25
:103CD0000230F8074A2E9512E0307605FA007A088D
:103CE00091007708FA007A08920020002608230045
:103CF0009300200025082300940055309600AA3038
:103D000096009514000000001511080022000C1602
:103D10000E1029260C120E142926862E23001513A8
:103D20009517760891007708FA007A089200F80152
:103D3000403078020318080015140000000000301D
:103D40008500203084000530840778088407140833
:103D500080002030840005308407780A8407130827
:103D60008000910A0230F807982E7A082100A000FE
:103D70007B08A1007C08A2007D08A3007E08003C0F
:103D80000318D62E2308850022088400A20A0319EE
:103D9000A30A0008FF002108850020088400A00A6B
:103DA0000319A10A7F088000FE03BE2E7A08A40032
:103DB0007B08A500080022000C12F8017A0878029E
:103DC0000318EA2E0E14292629260E102926292644
:103DD000F80ADE2E29262926DD2E0130F900F6010B
:103DE000F7018E260030FB006630FA000030FD003F
:103DF0002530FC000830FE00B52622000C160E14FB
:103E0000F8014630780203181C2F2000911A092F60
:103E1000052F23001908FA000030FC002030FB00B9
:103E20007C0885007B08780784007A0880007A087F
:103E3000FE3A031DF80A012FFA0122000C1EFA0AAD
:103E40007A180C167A1C0C1220002008F03A031D78
:103E5000382FA108031D382F22087F3A031D382F61
:103E60002308203A031D382F6508F73A03193B2F22
:103E70000230FA00DB262000A408983103198626B8
:103E800079082000240698310319492F0330FA00DD
:103E9000DB26F90A79087F3C98310318512F01304D
:103EA000F900F8014030780203187B2F00308500BC
:103EB0002030840005308407780884070008FA0061
:103EC000FA0DFA0DFA0DFA0DFA0DFA0DFA0D803011
:103ED000FA052030840005308407780A84077A08C0
:103EE00080042030840005308407780884078036F9
:103EF0000230F807522FF608031DAC2FF708031DF8
:103F0000AC2F0030FB006E30FA000030FD00253091
:103F1000FC000830FE00B5260030FB002530FA001A
:103F20000030FD006630FC000830FE00B526332668
:103F30002030F6001E30F7008E260030FB002730C0
:103F4000FA000030FD006E30FC000830FE00B5269F
:103F50003326F601F701BC2F1E307702031DB22F66
:103F600020307602031CBB2FF71BBB2F0430FA0056
:103F7000DB269831BC2F33262030F6070318F70ACA
:103F8000002F7A3021009900EF308C00FE308E0037
:103F90009513843022009D00B03023009D0008302E
:103FA0009F001F309B008C018E01083024008C0084
:103FB000292620008C1DED269E31202E08009831E8
:103FC000C12FFF3FFF3FFF3FFF3FFF3FFF3FFF3F4F
:103FD000FF3FFF3FFF3FFF3FFF3FFF3FFF3FFF3FF1
:103FE000FF3FFF3FFF3FFF3FFF3FFF3FFF3FFF3FE1
:103FF000FF3FFF3FFF3FFF3FFF3FFF3FFF3FFF3FD1
:020000040001F9
:10E00000A3000000000000000A0000000000000063
:10E01000FF00000000000100FF00240001007F005D
:10E0200000000000000000000000000000000100EF
:10E030000100FF00250001007F000000000000003B
:10E04000000000000000000001000100FF002600A9
:10E0500001007F0000000000000000000000000040
:10E06000000001000100FF00270001007F00000008
:10E07000000000000000000000000000010001009E
:10E08000FF00280001007F000000000000000000E9
:10E0900000000000000001000100FF002900010055
:10E0A0007F000000000000000000000000000000F1
:10E0B00001000100FF002A0001007F0000000000B5
:10E0C0000000000000000000000001000100FF004F
:10E0D0002B0001007F000000000000000000000095
:10E0E00000000000010000000000FF000000FF0031
:10E0F0000000FF000000FF000000FF000000FF0024
:10E100000000FF000000FF000000FF000000FF0013
:10E110000000FF000000FF000000FF000000FF0003
:10E120000000FF000000FF00FF00FF00FF00FF00F5
:10E13000FF00FF00FF00FF00FF00FF00FF00FF00E7
:10E14000FF00FF00FF00FF00FF00FF00FF00FF00D7
:10E15000FF00FF00FF00FF00FF00FF00FF00FF00C7
:10E16000FF00FF00FF00FF00FF00FF00FF00FF00B7
:10E17000FF00FF00FF00FF00FF00FF00FF00FF00A7
:10E18000FF00FF00FF00FF00FF00FF00FF00FF0097
:10E19000FF00FF00FF00FF00FF00FF00FF00FF0087
:10E1A000FF00FF00FF00FF00FF00FF00FF00FF0077
:10E1B000FF00FF00FF00FF00FF00FF00FF00FF0067
:10E1C000FF00FF00FF00FF00FF00FF00FF00FF0057
:10E1D000FF00FF00FF00FF00FF00FF00FF00FF0047
:10E1E000FF00FF00FF00FF00FF00FF00FF00FF0037
:10E1F000FF00FF00FF00FF00FF00FF00FF00FF0027
:020000040001F9
:04000E00A43FFF1EEE
:020000040001F9
:08000000FF3FFF3FFF3FFF3F00
:00000001FF
