:020000040000FA
:100000009E31252E000000008831CF2EFF3FED08E5
:10001000031D0B280800F93000000000000000005C
:1000200000000000000000000000000000000000D0
:10003000FF3E031D0C28000000000000000000002F
:1000400000000000000000000000000000000000B0
:10005000ED0B0B280800BA01803037020318BA0AEA
:10006000B901BA080319B90A3608003A03194E282B
:10007000013A03195828033A03196228013A03196F
:100080006C28073A03197628013A03198028033AA5
:1000900003198A28013A031994280800391C5228A8
:1000A00021008E1524003918080021008E11080047
:1000B000391C5C2821000E16240039180800210084
:1000C0000E120800391C662821000E15240039186C
:1000D000080021000E110800391C702821008E1420
:1000E00024003918080021008E100800391C7A28D5
:1000F00021000E1424003918080021000E100800F9
:10010000391C842821000C1524003918080021000E
:100110000C110800391C8E2821008C142400391879
:10012000080021008C100800391C982821000C14AC
:1001300024003918080021000C100800351DAA28D9
:100140003308B6003408FF3CB70002303505B8006C
:100150002B2008003308B6003408B70002303505FC
:10016000B8002B200800B301B401B3190800261C05
:10017000BB282508B407A60C0310A50DB30AB528A3
:100180000030AA002030A9002408A5000A30A600EB
:10019000B32034082907A7002A08A8000318A80AD2
:1001A00001308500203084002408AD0003102D0D9F
:1001B00084070008AB00840A0008AC00280885000A
:1001C00027088400023084070003031D08002C0860
:1001D00085002B088400053084070008AE002E0837
:1001E000033A0319FA28063A03191A29033A03199C
:1001F00008004B292808850027088400043084075C
:100200000008B100840A0008B00027088400083004
:100210008407840A3008800084033108800027089E
:1002200084000230840702308000270884000030F8
:10023000800008002808850027088400043084070F
:100240000008B100840A0008B000270884000830C4
:100250008407840A3008800084033108800027085E
:100260008400043084070008B100840A0008B0004C
:100270002708840006308407840A3008800084033D
:100280003108800027088400003080000230840795
:10029000033080000800280885002708840000300B
:1002A000800002308407003080002408B300B401CD
:1002B0002C0885002B0884000C3084070008B5004A
:1002C0009E2008000030AE002030AD002A08A500B6
:1002D0000A30A600B32034082D07AB002E08AC006E
:1002E0000318AC0A01308500203084002A08B100D0
:1002F0000310310D84070008AF00840A0008B00025
:10030000300885002F088400053084070008B200FB
:100310003208063A03199F29063A0319BF29033AFE
:100320000319BF29063A0319BF29013A0319C8293D
:10033000053A0319F729033A0319F729F7292C0875
:1003400085002B08840080080319BF292C0885002C
:100350002B08840002308407003080002B088400C2
:10036000003080002A08B300B401300885002F084F
:1003700084000C3084070008B5009E2008002C087B
:1003800085002B0884000230840701308000122A87
:100390002C0885002B088400043084070008B50071
:1003A000840A0008B4002B08840008308407840AFB
:1003B000340880008403350880002B088400043052
:1003C00084070008B500840A0008B4002B088400E4
:1003D00006308407840A34088000840335088000CE
:1003E0002B0884000230840703308000122A2C0876
:1003F00085002B088400043084070008B500840AB7
:100400000008B4002B08840008308407840A3408EC
:1004100080008403350880002B08840002308407A4
:10042000023080002C0885002B08840001308000F9
:100430002A08B300033084070008B40030088500A0
:100440002F0884000C3084070008B5009E200800A7
:1004500023009518282A240028082300910024004E
:100460002908230093009513151524002A108B1BCF
:100470002A148B13553023009600AA309600951449
:10048000151124002A188B172A1C8B130800013021
:10049000EF002400A001A101083020022108031868
:1004A000532A0319552AA11F080001308500203066
:1004B00084002008A2000310220D8407840A00088B
:1004C000A300840300088400230885000008033A81
:1004D000031D782A23006F086E050319742A24006F
:1004E0002008AA006221782A24002008A400C02045
:1004F0002300EF352400A00A0319A10A4C2A00307A
:10050000A900E030A8002408AA0003102A0DA807BB
:100510000318A90A2508013A0319922A033A031974
:10052000A92A0800A60803199C2A2908850028087A
:10053000840027088000A22A290885002808840052
:10054000FF30800029088500280A840000308000E0
:100550000800A7080319BE2A2603AC000130AB002F
:100560002C08FF390319B72AAB35FF3EB12A2908F9
:100570008500280A84002B088004080029088500CB
:10058000280A84002603AD000130AB00AC012D0821
:10059000FF390319CF2AAB35AC0DFF3EC82A2B0912
:1005A0008005080001308500203084002408AA005E
:1005B00003102A0D84070008A800840A0008A90077
:1005C0002508003A0319122B033A0319122B073A94
:1005D0000319122B053A0319192B033A0319192B86
:1005E000083A0319302B013A03193F2B073A031934
:1005F0004E2B3E3A0319572B013A03196A2B073A3F
:100600000319732B723A0319952B013A03199E2B88
:100610000F3A0319A72B013A0319B82B753A03199E
:10062000C12B0800290885002808840025088000BF
:100630000800290885002808840025088000023069
:1006400084072708800028088400033084070130CD
:10065000800028088400043084077F308000080070
:10066000A7080319362B2703AB00382BFF30AB004C
:1006700029088500280A84002B0880000800290822
:100680008500280884000330840727088000280894
:1006900084000430840727088000080029088500AA
:1006A0002808840004308407270880000800A70871
:1006B0000319622B29088500280884000C30840760
:1006C0000010080029088500280884000C308407E1
:1006D00000140800290885002808840005308407D4
:1006E0002708800008002608AC00AB01AC0DAB0D5C
:1006F000AC0DAB0DAC0DAB0DAC0DAB0DAC0DAB0D36
:10070000AC0DAB0DAC0DAB0D8030AC052708AC04C7
:10071000290885002808840006308407840A2B08ED
:10072000800084032C088000080029088500280820
:100730008400083084072708800008002908850005
:100740002808840009308407270880000800A708CB
:100750000319AD2B2703AB00AF2BFF30AB002908EB
:100760008500280884000A3084072B0880000800D0
:1007700029088500280884000B308407270880009A
:10078000080029088500280884000C3084070130FF
:100790008005280884000C3084072708800408009E
:1007A00024080A3A0319ED2B1E3A0319F12B273AB4
:1007B0000319F52B073A0319F92B723A0319122C76
:1007C000013A0319162C0F3A03191A2C013A03198E
:1007D000252C753A0319292C080026032200E40071
:1007E000080026032200E500080026082200E60093
:1007F000080025082200E700E801E70DE80DE70DF5
:10080000E80DE70DE80DE70DE80DE70DE80DE70D44
:10081000E80DE70DE80D8030E705240026082200EA
:10082000E704080026082200E90008002608220044
:10083000EA000800A6080319212C26032200EB0079
:100840000800FF302200EB00080026082200EC0020
:10085000080001302200ED05240026082200ED04E6
:1008600008002408003C25080318031DA51B0800E8
:1008700027088500260884000008A80023088500B2
:10088000220884000008A9002822270885002608DD
:1008900084000008A800840AA80A0319800A8403B7
:1008A00028088000A20A0319A30AA4080319A503B3
:1008B000A403312C0800230095185B2C2400230886
:1008C000230091009513151413082400A4000800B8
:1008D0000130A3006430A2000A30A400A501200862
:1008E000A6002108A70031240130A3003030A20067
:1008F0000D30A400A5012008A6002108A70031247E
:100900000130A3003D30A2000D30A400A501200855
:10091000A6002108A70031240130A3004A30A2001C
:100920000D30A400A5012008A6002108A70031244D
:100930000130A3005730A2000D30A400A50120080B
:10094000A6002108A70031240130A300A030A20096
:100950000D30A400A5012008A6002108A70031241D
:100960000130A300AD30A2000D30A400A501200885
:10097000A6002108A70031240130A300BA30A2004C
:100980000D30A400A5012008A6002108A7003124ED
:100990000130A300C730A2000D30A400A50120083B
:1009A000A6002108A70031240030A300E030A200F7
:1009B0002030A400A5012008A6002108A7003124AA
:1009C00008002300EC01ED0108306C026D080318EB
:1009D000EB2C0319ED2CED1FB12D00302400A300EA
:1009E0002030A20023006C082400A5000A30A600D5
:1009F000B320340822072300EE002400230823003C
:100A0000EF000318EF0A01308500203084006C08E5
:100A10002400A9000310290D84070008A700840AF8
:100A20000008A80028088500270884000C308407E7
:100A3000001C5D2D280885002708840005308407E8
:100A400022006608800024002708840006308407FE
:100A5000840A220067082400AA0022006808800097
:100A6000840324002A0880002708840008308407B3
:100A700022006908800024002708840009308407C8
:100A800022006A0880002400270884000A308407B6
:100A900022006B0880002400270884000B308407A4
:100AA00022006C08800001306D042400AA00270891
:100AB00084000C3084072A08800023006F0885001A
:100AC0006E0A840000308000840300308000023011
:100AD000840700308000240028088500270884004F
:100AE000063084070008AC00840A0008AB0023002D
:100AF0006F0885006E08840004308407840A24008F
:100B00002B08800084032C08800023006E088400DA
:100B100003308407FF3080006C082400AA005A24A8
:100B200028088500270884000008043A031D9E2D2C
:100B300023006C082400AA006221AC2D23006C085D
:100B40002400B300B40128088500270884000C3075
:100B500084070008B5009E202300EC0A0319ED0A63
:100B6000E42C210061082300EE0047220800200841
:100B7000643A031DC32D2108A4002208A500230800
:100B8000A600D023080001302002031CD52D200828
:100B9000083C031CD52D2003A4002108A500220831
:100BA000A6002308A700D22208000A302002031C56
:100BB00008002008193C031C08000A302002A40089
:100BC0002108A5002208A6002308A7007F2208000C
:100BD00023006E08003C6F080318031DEF1B08007C
:100BE000240021088500200884000008A3005B245D
:100BF0002408A20023006D0885006C0884002400EE
:100C00002208800021088500200884000008A20036
:100C1000840AA20A0319800A8403220880002300A0
:100C2000EC0A0319ED0AEE080319EF03EE03E82DB1
:100C30006C082400A00023006D082400A1002300FC
:100C40006E082400A20023006F082400A300B7252B
:100C500008000130ED006430EC000A30EE00EF01D6
:100C60006A082400A00023006B082400A100E825E6
:100C70000130ED003030EC000D30EE00EF016A087D
:100C80002400A00023006B082400A100E825013007
:100C9000ED003D30EC000D30EE00EF016A0824005D
:100CA000A00023006B082400A100E8250130ED001E
:100CB0004A30EC000D30EE00EF016A082400A0007D
:100CC00023006B082400A100E8250130ED00573017
:100CD000EC000D30EE00EF016A082400A0002300B4
:100CE0006B082400A100E8250130ED00A030EC00E5
:100CF0000D30EE00EF016A082400A00023006B080D
:100D00002400A100E8250130ED00AD30EC000D30ED
:100D1000EE00EF016A082400A00023006B08240005
:100D2000A100E8250130ED00BA30EC000D30EE00F6
:100D3000EF016A082400A00023006B082400A10032
:100D4000E8250130ED00C730EC000D30EE00EF017A
:100D50006A082400A00023006B082400A100E825F5
:100D60000030ED00E030EC002030EE00EF016A08CA
:100D70002400A00023006B082400A100E82508003F
:100D80002300EC01ED012400A801A430A9002822D1
:100D900001302300EE00EF0101302400A100EE300D
:100DA000A000682408006C082400A00023006D083F
:100DB0002400A10023006F08003C0318EC2E24003F
:100DC0002108850020088400A00A0319A10A230035
:100DD0006E088000EF03DA2E6C082400A2002300C6
:100DE0006D082400A3000800E1240800BD01BE0135
:100DF000BF01C001C101BD1A0800391C0D2F350803
:100E0000BE0736080318360FBF0737080318370F19
:100E1000C00738080318380FC1070310BC0CBB0CFF
:100E2000BA0CB90C0310B50DB60DB70DB80DBD0A4F
:100E3000FB2EB601B701B801B901BC01BD01BE016D
:100E4000BF01BA0120303A05BB00BB08031D0800F2
:100E5000BC35BD0DBE0DBF0DA90DAA0DAB0DAC0D62
:100E6000B60DB70DB80DB90D30083902031D422F6C
:100E70002F083802031D422F2E083702031D422F70
:100E80002D083602031C532F2D08B6022E08031C12
:100E90002E0FB7022F08031C2F0FB8023008031CB7
:100EA000300FB9023C14BA0A222F2000911091127F
:100EB00021009110911623001F129F159F101F10E3
:100EC0001E139E121E129E111E111E109D171D1321
:100ED0009D161D169C011F309B00080021009512D5
:100EE00095111511951415148B160B11080023007C
:100EF000E701E8010830670268080318812F031929
:100F0000832FE81F08000030EC002030EB0067085A
:100F10002400A5000A30A600B320340823006B0784
:100F2000E9006C08EA000318EA0A01308500203065
:100F3000840067082400A1000310210D8407000825
:100F40002300ED00840A0008EE006A0885006908A5
:100F500084000230840700082400A2002208003A1E
:100F6000883103199528013A03199528033A8031ED
:100F70000319BF2F013A0319BF2F88319528230089
:100F80006A08850069088400083084070008240086
:100F9000A300840AA308031DD02F80080319E22FA1
:100FA00023006A0885006908840008308407000867
:100FB0002400A300840AA30803198003A303840365
:100FC0002308800023006A0885006908840008302F
:100FD000840700082400A300840AA3088831031DA5
:100FE00029288008031D292823006A08850069082C
:100FF0008400800803190F286E0885006D0884009E
:10100000053084070008023A031D0F286A0885008E
:1010100069088400023084070130800095286A083E
:10102000850069088400023084070030800067086A
:101030002400B300B40123006E0885006D0884000D
:101040000C30840700082400B50080319E208831D0
:10105000952823006A088500690884000230840707
:101060000008033A031D95286A0885006908840072
:101070000630840700082400A700840A0008A8009E
:101080002300690884000830840700082400B900A0
:10109000840A0008BA00230069088400033084072A
:1010A00000082400B500B601B701B801BB01BC01BE
:1010B0008031F6263E08A9003F08AA004008AB0090
:1010C0004108B100B2013108AC008831B11F742869
:1010D000A909AA09AB09AC09A90A0319AA0A0319A3
:1010E000AB0A0319AC0AB20A2708AD002808AE0003
:1010F000AF01B001803119273C08A3008831321CB0
:101100008328A309A30A230067082400B300230847
:10111000B40023006E0885006D0884000C3084073D
:1011200000082400B50080319E202300E70A03193F
:10113000E80A80317A2F2200650823006806031D23
:101140000800EA010130EB00EC0110306B026C0882
:101150000318AC280319AE28EC1F080000308500E6
:10116000E03084006B08ED0003106D0D8407690802
:101170000006031DCA2800308500E03084006B089B
:10118000EF0003106F0D8407840A0008EE00803121
:1011900047220800EB0A0319EC0AA528EB01EC0131
:1011A00008306B026C080318D7280319D928EC1FE4
:1011B000080001308500203084006B08EF00031028
:1011C0006F0D84070008ED00840A0008EE0000306F
:1011D0002400A3002030A20023006B082400A500F7
:1011E0000A30A6008031B32034082207A00023086B
:1011F000A1000318A10A23006E0885006D08840071
:10120000800888310319342A6E0885006D0884002F
:101210000B30840769080006031DCC296E08850081
:101220006D0884000A308407000A031D1E2922006D
:10123000640823006806031DCC2928296E08850050
:101240006D0884000A30840700086806031DCC2955
:101250006E0885006D0884000930840700082400AA
:10126000A4002408013A03193929033A03198C29E7
:10127000CC2923006E0885006D08840006308407A1
:1012800000082400B500840A0008B600B701B801C0
:10129000840323006A082400B900BA01BB01BC0121
:1012A0008031F6263E08A9003F08AA004008AB009E
:1012B0004108B100B5013108AC008831B11F6C297B
:1012C000A909AA09AB09AC09A90A0319AA0A0319B1
:1012D000AB0A0319AC0AB50A7F30AD00AE01AF010D
:1012E000B001803119273C08B4003D08B3008831B3
:1012F000351C7F29B409B309B40A0319B30A2108BC
:1013000085002008840004308407840A33088000A4
:10131000840334088000CC2923006A08403C031869
:10132000A1296A082400A800A701A835A70DA80ACA
:1013300021088500200884000330840728088000E5
:10134000AD296A082400A700A735210885002008D8
:1013500084000330840727088000210885002008C6
:10136000840080080319CC2923006B082400B300F3
:101370002108850020088400033084070008B40099
:1013800023006E0885006D0884000C308407000877
:101390002400B50080319E2023006E0885006D0872
:1013A00084000008023A8831031D342A6E08850043
:1013B0006D0884000230840700086906031D342A82
:1013C0006E0885006D0A8400000A031DEE292200C4
:1013D000640823006806031D342AF6296E08850078
:1013E0006D0A840000086806031D342A6E08850013
:1013F0006D0884000330840700086A02031C202A59
:101400006E0885006D088400043084076A080002B5
:10141000031C202A240021088500200A840080085B
:10142000031D342A21088500200A84000130800031
:1014300023006B082400AA00803162218831342AFD
:10144000240021088500200A840080080319342A1A
:1014500021088500200A84000030800023006B08EA
:101460002400A4008031C0202300EB0A0319EC0AF9
:101470008831D028EB01EC0108306B026C080318AE
:10148000432A0319452AEC1F08000130850020304B
:1014900084006B08EF0003106F0D84070008ED0057
:1014A000840A0008EE0000302400A3002030A200CF
:1014B00023006B082400A5000A30A6008031B32069
:1014C00034082207A0002308A1000318A10A230062
:1014D0006E0885006D08840000038831031D482BC9
:1014E0006E0885006D0884000230840700086906D4
:1014F000031D482B6E0885006D0A8400000A031D39
:10150000882A2200640823006806031D482B902ABD
:101510006E0885006D0A840000086806031D482BCC
:101520006E0885006D0884000330840700086A0295
:10153000031C3A2B6E0885006D0884000430840774
:101540006A080002031C3A2B6E0885006D088400AF
:101550000830840700082400A4002408013A031975
:10156000B52A033A0319082B322B23006E08850095
:101570006D0884000630840700082400B500840A42
:101580000008B600B701B801840323006A082400EC
:10159000B900BA01BB01BC018031F6263E08A900A2
:1015A0003F08AA004008AB004108B100B50131086E
:1015B000AC008831B11FE82AA909AA09AB09AC0916
:1015C000A90A0319AA0A0319AB0A0319AC0AB50A36
:1015D0007F30AD00AE01AF01B001803119273C086A
:1015E000B4003D08B3008831351CFB2AB409B309A7
:1015F000B40A0319B30A21088500200884000430C6
:101600008407840A33088000840334088000322B66
:1016100023006A082400A700A735210885002008B8
:101620008400033084072708800020088400800895
:101630000319322B23006B082400B3002108850016
:1016400020088400033084070008B40023006E08DB
:1016500085006D0884000C30840700082400B50064
:1016600080319E2023006B082400AA008031622173
:101670008831482B24002108850020088400800838
:101680000319482B23006B082400A4008031C020DC
:101690002300EB0A0319EC0A88313C2A01302200AE
:1016A000A1003030A0000130A3003D30A200013085
:1016B000A5004A30A4000130A7005730A600013031
:1016C000A900A030A8000130AB00AD30AA00013065
:1016D000AD00BA30AC000130AF00C730AE00013011
:1016E0002300ED006430EC00EE010A30EF008031A1
:1016F000D3262300E801E90108306802690888312F
:101700000318842B0319862BE91FBA2B0030240001
:10171000A1002030A000230068082400A5000A30A2
:10172000A6008031B320340820072300EC002400F9
:1017300021082300ED000318ED0AEE010A30EF0046
:10174000D326013085002030840023006808EA0099
:1017500003106A0D84070008EC00840A0008ED00FD
:10176000EE010D30EF00D3262300E80A0319E90A41
:1017700088317C2BE601E701103066026708031808
:10178000C32B0319C52BE71F08000030ED00E03024
:10179000EC006608E8000310680DEC070318ED0A7A
:1017A000EE010230EF008031D32600308500E030BA
:1017B000840023006608E8000310680D8407FF30EA
:1017C0008000E60A0319E70A8831BC2B2400A30134
:1017D00080315B242408A43A031D08002300E6019D
:1017E000E7010130E800E9010130EB00E830EA00F0
:1017F00029260800080023009D1C002C1D121D1620
:1018000055085406031D062CEB0108000030850026
:10181000A0308400550884070008E700D50A3F304F
:10182000D505D6080319172CD701EB0108002200B3
:101830008C160A302300E000F0306705E8006808E5
:10184000F03A031D8E2C6708F83A0319402C023A2F
:101850000319402C013A0319402C073A0319402C74
:101860000D3A0319432C023A0319432C013A031988
:10187000432C023A0319502C073A0319532CFB2B23
:101880006708EB000800D9016708D7006708F23A3B
:10189000031D4D2C0230D800FB2B0130D800FB2B50
:1018A0000230DB00FB2B5B08013A03198A2C013A5A
:1018B00003198A2C053A031D732C22008C168031E3
:1018C000C026FA302300ED000720FA30ED00072093
:1018D000FA30ED000720FA30ED00072022008C12CC
:1018E000F42688318A2CEC010A306C020318882C0B
:1018F00022008C1664302300ED0080310720220086
:101900008C1264302300ED000720EC0A8831742C1F
:101910008031F4262300DB018831FB2B8030670502
:10192000E900EA01E9080319EA0AEA08031DBC2CE8
:10193000DB01D9016708D700F0306705EC006C08BF
:10194000C03A0319B62C103A0319B62C703A031991
:10195000B92C203A0319B92C103A0319B92C203AA2
:101960000319B92C503A0319B92CB92C0130D800FD
:10197000FB2B0230D800FB2B5B08023A0319D92C51
:10198000013A0319E42C073A0319F02C013A031920
:10199000FC2C033A0319002D013A0319042D0F3AC8
:1019A0000319082D093A0319FB2B013A0319172DC6
:1019B000FB2BE708031DDF2C0330EC00E12C01308A
:1019C000EC006C08DB00FB2B67087F3A031DEB2C57
:1019D0000430EC00ED2C0130EC006C08DB00FB2B3C
:1019E0006708193A031DF72C0530EC00F92C01307B
:1019F000EC006C08DB00FB2B6708DC00DB0AFB2B30
:101A00006708DD00DB0AFB2B6708DE00DB0AFB2B27
:101A10005C08EC005D08ED005E08EE006708EF0072
:101A20008031182605302300DB008831FB2BD708D6
:101A30000319FB2B013085006E3084005908D90A48
:101A400084076708800058085902031CFB2BD90142
:101A5000F0305705EC006C08803A0319392D103A24
:101A60000319392D203A0319392D703A0319392DEC
:101A7000FB2B5708EB0008007A3021009900220068
:101A80009D019E01DF3021008C00FF308E0023007D
:101A90008C018E0122008C018E0124000C16210085
:101AA000951322008C1664302300ED00803107204E
:101AB00022008C1264302300ED00072022008C16D7
:101AC00064302300ED00072022008C1264302300D4
:101AD000ED0007208831FA23403020009800803143
:101AE0006E2755278B170B172000181488314E23AB
:101AF000E623E12422008C1664302300ED00072049
:101B000022008C1264302300ED00072022008C1686
:101B100064302300ED00072022008C126430230083
:101B2000ED000720E201E301E401E5012300DF0805
:101B300088310319ED2DDF0180317727E0088831E6
:101B40000319A62DE00BA62D22008C1220000C1AE2
:101B5000D42D2300E208031DBE2DE308031DBE2D76
:101B60008031F4262300D6010130E200E301220097
:101B70008C16FF302300E0008831D72D6308033C2A
:101B8000031DC42D6208E83C0318D02DE31BD02DA3
:101B90000130D600E40122008C162300E001D72D8D
:101BA000E20A0319E30AD72D2300E201E301D60874
:101BB0000319ED2DE40A031DED2DE70122008C1A17
:101BC000E32D2300E70A2300671CE82D22008C1672
:101BD00023006718ED2D22008C12FB236B08E60012
:101BE000E6080319962DF0306605E7006708803A8D
:101BF0000319042E103A03190E2E203A03191B2E36
:101C0000703A0319282E962D0F306605E800220041
:101C10006E082300E900EA013A22962D0F3066058E
:101C2000E80022006E082300E90022006F0823006C
:101C3000EA003A22962D0F306605E80022006E0871
:101C40002300E90022006F082300EA00CE20962D31
:101C50000F306605E80022006E082300E9009B2093
:101C60008831962D00308500A03084003F3021005F
:101C7000DF008001840A8831DF0B392E2300D40174
:101C8000D501D601D701D8012200EE01EF012300D2
:101C9000D901DA01DB01DC01DD01DE01DF01E00158
:101CA0000030E10001308500303084000C3022002B
:101CB000BC008001840ABC0B592E013085003D30E8
:101CC00084000C30C9008001840AC90B632E0130E6
:101CD00085004A3084000C30D6008001840AD60B7F
:101CE0006D2E01308500573084000C30E3008001F8
:101CF000840AE30B772E01308500A03084000C307D
:101D00002300AC008001840AAC0B822E01308500D8
:101D1000AD3084000C30B9008001840AB90B8C2EE0
:101D200001308500BA3084000C30C6008001840A7E
:101D3000C60B962E01308500C73084000C30D300CE
:101D40008001840AD30BA02E01308500203084004E
:101D50000F302200AF008001840AAF0BAB2EE401EC
:101D6000E501E601E701E801E901EA01EB01EC0127
:101D7000ED0100308500203084004F302000EF005E
:101D80008001840AEF0BC02E00308500E030840013
:101D90001F30FF008001840AFF0BCA2E3C2D0B1D53
:101DA000D82E05302000950001302300DF000B11F4
:101DB0002000911E0900230019082400C2002300FE
:101DC000540A2400C3003F30C305230055082400F3
:101DD00043060319F82E00308500A030840023004C
:101DE0005408840724004208800043082300D400DC
:101DF000200091120900FF3FFF3FFF3FFF3FFF3FE1
:101E000084000C302300AC008001840AAC0B042F4A
:101E100001308500AD3084000C30B9008001840AA7
:101E2000B90B0E2F01308500BA3084000C30C6008B
:101E30008001840AC60B182F01308500C73084004A
:101E40000C30D3008001840AD30B222F013085008F
:101E5000203084000F302200AF008001840AAF0BD5
:101E60002D2FE401E501E601E701E801E901EA01BE
:101E7000EB01EC01ED0100308500203084004F3093
:101E80002000EF008001840AEF0B422F0030850014
:101E9000E03084001F30FF008001840AFF0B4C2FCC
:101EA000BE2D0B1D5A2F0530200095000130230058
:101EB000DF000B112000911E0900230019082400E7
:101EC000C2002300540A2400C3003F30C30523008E
:101ED00055082400430603197A2F00308500A030EE
:101EE000840023005408840724004208800043082B
:101EF0002300D400200091120900FF3FFF3FFF3F65
:101F0000FF3FFF3FFF3FFF3FFF3FFF3FFF3FFF3FE1
:101F1000FF3FFF3FFF3FFF3FFF3FFF3FFF3FFF3FD1
:101F2000FF3FFF3FFF3FFF3FFF3FFF3FFF3FFF3FC1
:101F3000FF3FFF3FFF3FFF3FFF3FFF3FFF3FFF3FB1
:103C40008A018831322EFF3FFF3FDE2FFF3FFF3FCB
:103C5000FF3FFB01FB0303190800FC01FC030319F0
:103C60002A2E00002E2EE0307605FA007A08230076
:103C700091007708FA007A08920015139517151627
:103C8000151555309600AA309600951400000000D6
:103C90009516F8014030780203186B2E003085002D
:103CA0002030840005308407780A840700089300D8
:103CB00020308400053084077808840700089400C9
:103CC00055309600AA309600951400000000910A25
:103CD0000230F8074A2E9512E0307605FA007A088D
:103CE00091007708FA007A08920020002608230045
:103CF0009300200025082300940055309600AA3038
:103D000096009514000000001511080022008C1682
:103D10008C1229268C128C162926862E2300151328
:103D20009517760891007708FA007A089200F80152
:103D3000403078020318080015140000000000301D
:103D40008500203084000530840778088407140833
:103D500080002030840005308407780A8407130827
:103D60008000910A0230F807982E7A082100A000FE
:103D70007B08A1007C08A2007D08A3007E08003C0F
:103D80000318D62E2308850022088400A20A0319EE
:103D9000A30A0008FF002108850020088400A00A6B
:103DA0000319A10A7F088000FE03BE2E7A08A40032
:103DB0007B08A500080022008C12F8017A0878021E
:103DC0000318EA2E8C16292629268C122926292644
:103DD000F80ADE2E29262926DD2E0130F900F6010B
:103DE000F7018E260030FB006630FA000030FD003F
:103DF0002530FC000830FE00B52622008C168C16FB
:103E0000F8014630780203181C2F2000911A092F60
:103E1000052F23001908FA000030FC002030FB00B9
:103E20007C0885007B08780784007A0880007A087F
:103E3000FE3A031DF80A012FFA0122008C1EFA0A2D
:103E40007A188C167A1C8C1220002008F03A031D78
:103E5000382FA108031D382F22087F3A031D382F61
:103E60002308233A031D382F6508F73A03193B2F1F
:103E70000230FA00DB262000A408983103198626B8
:103E800079082000240698310319492F0330FA00DD
:103E9000DB26F90A79087F3C98310318512F01304D
:103EA000F900F8014030780203187B2F00308500BC
:103EB0002030840005308407780884070008FA0061
:103EC000FA0DFA0DFA0DFA0DFA0DFA0DFA0D803011
:103ED000FA052030840005308407780A84077A08C0
:103EE00080042030840005308407780884078036F9
:103EF0000230F807522FF608031DAC2FF708031DF8
:103F0000AC2F0030FB006E30FA000030FD00253091
:103F1000FC000830FE00B5260030FB002530FA001A
:103F20000030FD006630FC000830FE00B526332668
:103F30002030F6001E30F7008E260030FB002730C0
:103F4000FA000030FD006E30FC000830FE00B5269F
:103F50003326F601F701BC2F1E307702031DB22F66
:103F600020307602031CBB2FF71BBB2F0430FA0056
:103F7000DB269831BC2F33262030F6070318F70ACA
:103F8000002F7A3021009900DF308C00FF308E0046
:103F9000951322009D01B03023009D0008309F0042
:103FA0001F309B008C018E01103024008C002926CC
:103FB00020000C1EED269E31202E08009831C12FC6
:103FC000FF3FFF3FFF3FFF3FFF3FFF3FFF3FFF3F01
:103FD000FF3FFF3FFF3FFF3FFF3FFF3FFF3FFF3FF1
:103FE000FF3FFF3FFF3FFF3FFF3FFF3FFF3FFF3FE1
:103FF000FF3FFF3FFF3FFF3FFF3FFF3FFF3FFF3FD1
:020000040001F9
:10E00000A4000000000000000A0000000000000062
:10E01000FF00000000000100FF00240001007F005D
:10E0200000000A00000000000000FF0000000100E6
:10E030000100FF00250001007F0000000A00000031
:10E0400000000000FF00000001000100FF002600AA
:10E0500001007F0000000A00000000000000FF0037
:10E06000000001000100FF00270001007F00000008
:10E070000A00000000000000FF0000000100010095
:10E08000FF00280001007F0000000A0000000000DF
:10E090000000FF00000001000100FF002900010056
:10E0A0007F0000000A00000000000000FF000000E8
:10E0B00001000100FF002A0001007F000100640050
:10E0C000000000000100FF00010001000100FF004E
:10E0D0002B0001007F00010064000000000001002F
:10E0E000FF000100010000000000FF000000FF0031
:10E0F0000000FF000000FF000000FF000000FF0024
:10E100000000FF000000FF000000FF000000FF0013
:10E110000000FF000000FF000000FF000000FF0003
:10E120000000FF000000FF00FF00FF00FF00FF00F5
:10E13000FF00FF00FF00FF00FF00FF00FF00FF00E7
:10E14000FF00FF00FF00FF00FF00FF00FF00FF00D7
:10E15000FF00FF00FF00FF00FF00FF00FF00FF00C7
:10E16000FF00FF00FF00FF00FF00FF00FF00FF00B7
:10E17000FF00FF00FF00FF00FF00FF00FF00FF00A7
:10E18000FF00FF00FF00FF00FF00FF00FF00FF0097
:10E19000FF00FF00FF00FF00FF00FF00FF00FF0087
:10E1A000FF00FF00FF00FF00FF00FF00FF00FF0077
:10E1B000FF00FF00FF00FF00FF00FF00FF00FF0067
:10E1C000FF00FF00FF00FF00FF00FF00FF00FF0057
:10E1D000FF00FF00FF00FF00FF00FF00FF00FF0047
:10E1E000FF00FF00FF00FF00FF00FF00FF00FF0037
:10E1F000FF00FF00FF00FF00FF00FF00FF00FF0027
:020000040001F9
:04000E00A43FFF1EEE
:020000040001F9
:08000000FF3FFF3FFF3FFF3F00
:00000001FF
